:100000000C942A000C9447000C9447000C94470071
:100010000C9447000C9447000C9447000C94470044
:100020000C9447000C9447000C9447000C94470034
:100030000C9447000C9447000C9447000C94470024
:100040000C9447000C9447000C9447000C94470014
:100050000C94470011241FBECFE5D8E0DEBFCDBF12
:1000600010E0A0E6B0E0E4EFFBE002C005900D92E6
:10007000A63AB107D9F710E0A6EAB0E001C01D9298
:10008000A73AB107E1F70E9449000C94F8050C94D7
:1000900000000E9421020E94360180E690E00E944A
:1000A00079028FEF9DEEA2E081509040A040E1F7F1
:1000B00000C000008AE690E00E947902FFCFDC01D8
:1000C000FB018181813081F481E090E0008002C0F9
:1000D000880F991F0A94E2F711969C911197892B2A
:1000E00011968C9311970895823079F481E090E015
:1000F000008002C0880F991F0A94E2F712969C9123
:100100001297892B12968C93129781E090E00080D1
:1001100002C0880F991F0A94E2F7809511969C916E
:100120001197892311968C9311970895FC011182E0
:1001300012820895FC0121E030E0C901062E02C0C0
:10014000880F991F0A94E2F7208130E082239323DD
:1001500002C0959587956A95E2F70895FC01808124
:100160000895FC01413069F481E090E09C0102C0F7
:10017000220F331F6A95E2F7B9018281682B6283EF
:10018000089581E090E09C0102C0220F331F6A9520
:10019000E2F7B90160958281682362830895FC01CA
:1001A00062830895FC0181E090E09C0102C0220F6F
:1001B000331F6A95E2F7B901828168276283089547
:1001C000CF92DF92EF92FF920F931F93CF93DF9323
:1001D0007C01442301F5C0E0D0E001E010E0C62E30
:1001E000DD24C8010C2E02C0880F991F0A94E2F783
:1001F0008C219D219C010C2E02C0359527950A94D7
:10020000E2F7A901C7016C2F0E94B1002196C4300A
:10021000D10539F722C0413001F5C0E0D0E001E05E
:1002200010E0C62EDD246C2F6C5FC8010C2E02C0BE
:10023000880F991F0A94E2F78C219D219C010C2EB6
:1002400002C0359527950A94E2F7A901C7010E94DB
:10025000B1002196C430D10531F7DF91CF911F91C4
:100260000F91FF90EF90DF90CF9008950F931F9321
:10027000CF93DF9300D0CDB7DEB710E001E0198354
:100280000A8380E390E0BE016F5F7F4F0E945F00B2
:100290001F5F1430A1F702E019830A8380E390E026
:1002A000BE016F5F7F4F0E945F001F5F1830A1F794
:1002B0000F900F90DF91CF911F910F910895EF92C2
:1002C000FF920F931F93CF93DF93CDB7DEB7609765
:1002D0000FB6F894DEBF0FBECDBFDE011196EFE87A
:1002E000F0E080E101900D928150E1F7EE24FF24CF
:1002F00004E080E390E060E041E00E94B10080E330
:1003000090E061E041E00E94B10080E390E062E0B3
:1003100041E00E94B10080E390E063E041E00E9490
:10032000B10080E390E06E2D40E00E94B100102FFC
:1003300080E390E0612F0E949A00882391F4F701F6
:10034000EE0FFF1FEE0FFF1F81E090E08C0F9D1F4F
:10035000E80FF91FE10FF11D349780818F3F21F0E5
:100360000CC01F5F183021F70894E11CF11C94E0C9
:10037000E916F10409F0BDCF8FEF60960FB6F8943F
:10038000DEBF0FBECDBFDF91CF911F910F91FF90C8
:10039000EF90089586E390E060E041E00E94B100B4
:1003A0008FE59AEE0197F1F700C0000086E390E038
:1003B00060E040E00E94B1008FE59AEE0197F1F70E
:1003C00000C000000895CF93C82F86E390E061E05D
:1003D00040E00E94B10086E390E062E040E00E94CD
:1003E000B10089E390E06C2F0E94CF000E94CA0107
:1003F0008FEC97E00197F1F700C00000CF910895CE
:10040000CF93C82F86E390E061E041E00E94B10005
:1004100086E390E062E040E00E94B10089E390E072
:100420006C2F0E94CF000E94CA01CF91089581E0F5
:100430000E94E3018FE19EE40197F1F700C0000004
:1004400008951F93CF93DF9300D0CDB7DEB7198205
:1004500011E01A8386E390E0BE016F5F7F4F0E9438
:100460005F0019831A8386E390E0BE016F5F7F4FC0
:100470000E945F0082E089831A8386E390E0BE01D8
:100480006F5F7F4F0E945F008FEF8ABB88E30E94FF
:10049000E3018EE00E94E3010E94170286E00E94C1
:1004A000E3010F900F90DF91CF911F910895CF93AB
:1004B000C62F982F9150923020F4662311F06131AD
:1004C00020F080E80E94E30112C0813039F4862FC9
:1004D00081580E94E301C093A60009C0823039F41C
:1004E000862F81540E94E301C05FC093A600CF9184
:1004F0000895CF93DF93C82FD92F15C00E94000213
:100500008091A6008F5F8093A600803121F482E065
:1005100061E00E9457028091A600803221F40E947F
:1005200017021092A6008991882341F7DF91CF919D
:1005300008950F931F93CF93DF93CDB7DEB729971D
:100540000FB6F894DEBF0FBECDBFDC01CB012DB7D7
:100550003EB7285030400FB6F8943EBF0FBE2DBFB7
:100560004DB75EB74F5F5F4F8E010F5F1F4FEDB707
:10057000FEB7128301832FE930E0FA01338322832F
:1005800084839583A683B7830E9421032DB73EB74A
:10059000285F3F4F0FB6F8943EBF0FBE2DBFC80176
:1005A0000E94790229960FB6F894DEBF0FBECDBF28
:1005B000DF91CF911F910F9108950F931F93CF93C8
:1005C000DF93CDB7DEB729970FB6F894DEBF0FBE25
:1005D000CDBFDC01CB012DB73EB7285030400FB660
:1005E000F8943EBF0FBE2DBF4DB75EB74F5F5F4F54
:1005F0008E010F5F1F4FEDB7FEB71283018322EA12
:1006000030E0FA013383228384839583A683B78302
:100610000E9421032DB73EB7285F3F4F0FB6F894D5
:100620003EBF0FBE2DBFC8010E94790229960FB6AA
:10063000F894DEBF0FBECDBFDF91CF911F910F9118
:100640000895AEE0B0E0E7E2F3E00C94CF050D8949
:100650001E8986E08C831A8309838FEF9FE79E8330
:100660008D83AE01475E5F4FCE0101966F89788D15
:100670000E944303EF81F885E00FF11F10822E9650
:10068000E4E00C94EB05ADE0B0E0E9E4F3E00C94B9
:10069000C1053C017D876C875A01FC0117821682D7
:1006A000838181FFC8C12E010894411C511CF301B4
:1006B0009381EC85FD8593FD859193FF8191FD8765
:1006C000EC87882309F4B3C1853241F493FD859109
:1006D00093FF8191FD87EC87853229F490E0B30187
:1006E0000E943705E4CFFF24EE2410E01032B0F46E
:1006F0008B3269F08C3228F4803251F0833271F4FD
:100700000BC08D3239F0803349F411602CC0126077
:10071000146029C0186027C0106125C017FD2EC0C5
:10072000282F20532A3098F416FF08C08F2D880FE9
:10073000F82EFF0CFF0CF80EF20E15C08E2D880F50
:10074000E82EEE0CEE0CE80EE20E10620CC08E32BB
:1007500021F416FD6CC1106406C08C3611F41068CB
:1007600002C0883659F4EC85FD8593FD859193FF91
:100770008191FD87EC87882309F0B8CF982F955495
:10078000933018F09052933038F424E030E0A20E09
:10079000B31E3FE339830FC0833631F0833781F0D6
:1007A000833509F05AC022C0F5018081898322E097
:1007B00030E0A20EB31E21E0C22ED12C420114C0A3
:1007C00092E0292E312C2A0C3B1CF501808091806F
:1007D00016FF03C06F2D70E002C06FEF7FEFC40102
:1007E0000E942C056C0151011F7715C082E0282E54
:1007F000312C2A0C3B1CF5018080918016FF03C030
:100800006F2D70E002C06FEF7FEFC4010E942105E1
:100810006C011068510113FD1CC006C080E290E01D
:10082000B3010E943705EA948E2D90E0C816D906D0
:10083000A8F30FC0F40117FD859117FF81914F01B7
:1008400090E0B3010E943705E110EA940894C108D2
:10085000D108C114D10471F7E7C0843611F089368C
:1008600051F5F50117FF07C080819181A281B38105
:1008700024E030E008C080819181AA2797FDA095EF
:10088000BA2F22E030E0A20EB31E012F0F76B7FF81
:1008900008C0B095A095909581959F4FAF4FBF4FE1
:1008A0000068BC01CD01A2012AE030E00E9463058E
:1008B000D82ED4183FC0853721F41F7E2AE030E0BF
:1008C00020C0197F8F36A9F0803720F4883509F0D1
:1008D000AEC00BC0803721F0883709F0A8C001C036
:1008E000106114FF09C0146007C014FF08C016602F
:1008F00006C028E030E005C020E130E002C020E181
:1009000032E0F50117FF07C0608171818281938118
:1009100044E050E006C06081718180E090E042E0F8
:1009200050E0A40EB51EA2010E946305D82ED41873
:10093000012F0F7706FF09C00E7FDF1430F404FF8C
:1009400006C002FD04C00F7E02C01D2D01C01F2D78
:10095000802F90E004FF0CC0FE01ED0DF11D208101
:10096000203311F4097E09C002FF06C01E5F05C0D6
:1009700086789070009709F01F5F802E992403FD00
:1009800012C000FF0DC0FD2C1E1550F4FE0CF11A14
:100990001E2D06C080E290E0B3010E9437051F5F64
:1009A0001E15C0F304C01E1510F4E11A01C0EE2498
:1009B00084FE0FC080E390E0B3010E94370582FE01
:1009C0001FC081FE03C088E590E010C088E790E07A
:1009D0000DC0C40186789070009791F081FC02C030
:1009E00080E201C08BE207FD8DE290E0B3010E943E
:1009F000370506C080E390E0B3010E943705FA9402
:100A0000DF14C0F3DA94F201ED0DF11D808190E066
:100A1000B3010E943705DD20A9F706C080E290E00F
:100A2000B3010E943705EA94EE20C1F740CEF301EE
:100A30008681978102C08FEF9FEF2D96E2E10C94A3
:100A4000DD05FC010590615070400110D8F78095DC
:100A500090958E0F9F1F0895FC016150704001908A
:100A60000110D8F7809590958E0F9F1F08950F93D2
:100A70001F93CF93DF938C01EB018B8181FF1BC010
:100A800082FF0DC02E813F818C819D8128173907FF
:100A900064F4E881F9810193F983E88306C0E8856D
:100AA000F985802F0995009731F48E819F810196F9
:100AB0009F838E8302C00FEF1FEFC801DF91CF919C
:100AC0001F910F910895FA01AA27283051F1203182
:100AD00081F1E8946F936E7F6E5F7F4F8F4F9F4FD2
:100AE000AF4FB1E03ED0B4E03CD0670F781F891F14
:100AF0009A1FA11D680F791F8A1F911DA11D6A0FE2
:100B0000711D811D911DA11D20D009F468943F9194
:100B10002AE0269F11243019305D3193DEF6CF0193
:100B20000895462F4770405D4193B3E00FD0C9F759
:100B3000F6CF462F4F70405D4A3318F0495D31FDC6
:100B40004052419302D0A9F7EACFB4E0A695979519
:100B5000879577956795BA95C9F7009761057105EF
:100B600008959B01AC010A2E069457954795379539
:100B70002795BA95C9F7620F731F841F951FA01D93
:100B800008952F923F924F925F926F927F928F9231
:100B90009F92AF92BF92CF92DF92EF92FF920F930C
:100BA0001F93CF93DF93CDB7DEB7CA1BDB0B0FB616
:100BB000F894DEBF0FBECDBF09942A8839884888D3
:100BC0005F846E847D848C849B84AA84B984C88469
:100BD000DF80EE80FD800C811B81AA81B981CE0F60
:100BE000D11D0FB6F894DEBF0FBECDBFED01089545
:040BF000F894FFCFA7
:100BF40061737373737361616100736464646464C7
:100C04006464646464646466667878787878787810
:100C14007878787878787878787878786661003732
:100C240038392F3435362A3132332D41303D2B2596
:060C3400640025660000CB
:00000001FF
