S010000041746D65676133322E7372656360
S11300000C942A000C9463000C947F000C949B00C5
S11300100C9447000C9447000C9447000C94470040
S11300200C9447000C9447000C9447000C94470030
S11300300C9447000C9447000C9447000C94470020
S11300400C9447000C9447000C9447000C94470010
S11300500C94470011241FBECFE5D8E0DEBFCDBF0E
S113006010E0A0E6B0E0E2E7F1E002C005900D92F6
S1130070A036B107D9F710E0A0E6B0E001C01D92A8
S1130080A036B107E1F70E9449000C94B7000C9424
S113009000008D9A8E9A8F9A85B7816085BF8BB741
S11300A080648BBF85B7846085BF8BB780688BBF46
S11300B084B7806484BF8BB780628BBF7894959833
S11300C096989798FCCF1F920F920FB60F92112417
S11300D08F939F93AF93BF93959A8FEF99E6A8E17F
S11300E081509040A040E1F700C00000BF91AF9163
S11300F09F918F910F900FBE0F901F9018951F9294
S11301000F920FB60F9211248F939F93AF93BF93C7
S1130110969A8FEF99E6A8E181509040A040E1F7CC
S113012000C00000BF91AF919F918F910F900FBEBF
S11301300F901F9018951F920F920FB60F921124D3
S11301408F939F93AF93BF93979A8FEF99E6A8E10C
S113015081509040A040E1F700C00000BF91AF91F2
S11301609F918F910F900FBE0F901F901895F89448
S1050170FFCFBB
S9030000FC
